{
  "_format": "hh-sol-artifact-1",
  "contractName": "AgentEconomyHub",
  "sourceName": "contracts/web4/AgentEconomyHub.sol",
  "abi": [
    {
      "inputs": [],
      "stateMutability": "nonpayable",
      "type": "constructor"
    },
    {
      "inputs": [
        {
          "internalType": "address",
          "name": "owner",
          "type": "address"
        }
      ],
      "name": "OwnableInvalidOwner",
      "type": "error"
    },
    {
      "inputs": [
        {
          "internalType": "address",
          "name": "account",
          "type": "address"
        }
      ],
      "name": "OwnableUnauthorizedAccount",
      "type": "error"
    },
    {
      "inputs": [],
      "name": "ReentrancyGuardReentrantCall",
      "type": "error"
    },
    {
      "anonymous": false,
      "inputs": [
        {
          "indexed": true,
          "internalType": "uint256",
          "name": "agentId",
          "type": "uint256"
        }
      ],
      "name": "AgentRegistered",
      "type": "event"
    },
    {
      "anonymous": false,
      "inputs": [
        {
          "indexed": true,
          "internalType": "uint256",
          "name": "agentId",
          "type": "uint256"
        },
        {
          "indexed": false,
          "internalType": "uint256",
          "name": "amount",
          "type": "uint256"
        },
        {
          "indexed": true,
          "internalType": "address",
          "name": "module",
          "type": "address"
        }
      ],
      "name": "Credited",
      "type": "event"
    },
    {
      "anonymous": false,
      "inputs": [
        {
          "indexed": true,
          "internalType": "uint256",
          "name": "agentId",
          "type": "uint256"
        },
        {
          "indexed": false,
          "internalType": "uint256",
          "name": "amount",
          "type": "uint256"
        },
        {
          "indexed": true,
          "internalType": "address",
          "name": "module",
          "type": "address"
        }
      ],
      "name": "Debited",
      "type": "event"
    },
    {
      "anonymous": false,
      "inputs": [
        {
          "indexed": true,
          "internalType": "uint256",
          "name": "agentId",
          "type": "uint256"
        },
        {
          "indexed": false,
          "internalType": "uint256",
          "name": "amount",
          "type": "uint256"
        }
      ],
      "name": "Deposited",
      "type": "event"
    },
    {
      "anonymous": false,
      "inputs": [
        {
          "indexed": true,
          "internalType": "address",
          "name": "module",
          "type": "address"
        },
        {
          "indexed": false,
          "internalType": "bool",
          "name": "status",
          "type": "bool"
        }
      ],
      "name": "ModuleAuthorized",
      "type": "event"
    },
    {
      "anonymous": false,
      "inputs": [
        {
          "indexed": true,
          "internalType": "address",
          "name": "previousOwner",
          "type": "address"
        },
        {
          "indexed": true,
          "internalType": "address",
          "name": "newOwner",
          "type": "address"
        }
      ],
      "name": "OwnershipTransferred",
      "type": "event"
    },
    {
      "anonymous": false,
      "inputs": [
        {
          "indexed": true,
          "internalType": "uint256",
          "name": "agentId",
          "type": "uint256"
        },
        {
          "indexed": false,
          "internalType": "enum AgentEconomyHub.SurvivalTier",
          "name": "oldTier",
          "type": "uint8"
        },
        {
          "indexed": false,
          "internalType": "enum AgentEconomyHub.SurvivalTier",
          "name": "newTier",
          "type": "uint8"
        }
      ],
      "name": "TierChanged",
      "type": "event"
    },
    {
      "anonymous": false,
      "inputs": [
        {
          "indexed": true,
          "internalType": "uint256",
          "name": "from",
          "type": "uint256"
        },
        {
          "indexed": true,
          "internalType": "uint256",
          "name": "to",
          "type": "uint256"
        },
        {
          "indexed": false,
          "internalType": "uint256",
          "name": "amount",
          "type": "uint256"
        }
      ],
      "name": "Transferred",
      "type": "event"
    },
    {
      "anonymous": false,
      "inputs": [
        {
          "indexed": true,
          "internalType": "uint256",
          "name": "agentId",
          "type": "uint256"
        },
        {
          "indexed": false,
          "internalType": "uint256",
          "name": "amount",
          "type": "uint256"
        },
        {
          "indexed": true,
          "internalType": "address",
          "name": "to",
          "type": "address"
        }
      ],
      "name": "Withdrawn",
      "type": "event"
    },
    {
      "inputs": [],
      "name": "TIER_CRITICAL",
      "outputs": [
        {
          "internalType": "uint256",
          "name": "",
          "type": "uint256"
        }
      ],
      "stateMutability": "view",
      "type": "function"
    },
    {
      "inputs": [],
      "name": "TIER_LOW",
      "outputs": [
        {
          "internalType": "uint256",
          "name": "",
          "type": "uint256"
        }
      ],
      "stateMutability": "view",
      "type": "function"
    },
    {
      "inputs": [],
      "name": "TIER_NORMAL",
      "outputs": [
        {
          "internalType": "uint256",
          "name": "",
          "type": "uint256"
        }
      ],
      "stateMutability": "view",
      "type": "function"
    },
    {
      "inputs": [
        {
          "internalType": "address",
          "name": "module",
          "type": "address"
        },
        {
          "internalType": "bool",
          "name": "status",
          "type": "bool"
        }
      ],
      "name": "authorizeModule",
      "outputs": [],
      "stateMutability": "nonpayable",
      "type": "function"
    },
    {
      "inputs": [
        {
          "internalType": "address",
          "name": "",
          "type": "address"
        }
      ],
      "name": "authorizedModules",
      "outputs": [
        {
          "internalType": "bool",
          "name": "",
          "type": "bool"
        }
      ],
      "stateMutability": "view",
      "type": "function"
    },
    {
      "inputs": [
        {
          "internalType": "uint256",
          "name": "agentId",
          "type": "uint256"
        }
      ],
      "name": "computeTier",
      "outputs": [
        {
          "internalType": "enum AgentEconomyHub.SurvivalTier",
          "name": "",
          "type": "uint8"
        }
      ],
      "stateMutability": "view",
      "type": "function"
    },
    {
      "inputs": [
        {
          "internalType": "uint256",
          "name": "agentId",
          "type": "uint256"
        },
        {
          "internalType": "uint256",
          "name": "amount",
          "type": "uint256"
        }
      ],
      "name": "creditAgent",
      "outputs": [],
      "stateMutability": "nonpayable",
      "type": "function"
    },
    {
      "inputs": [
        {
          "internalType": "uint256",
          "name": "agentId",
          "type": "uint256"
        },
        {
          "internalType": "uint256",
          "name": "amount",
          "type": "uint256"
        }
      ],
      "name": "debitAgent",
      "outputs": [],
      "stateMutability": "nonpayable",
      "type": "function"
    },
    {
      "inputs": [
        {
          "internalType": "uint256",
          "name": "agentId",
          "type": "uint256"
        }
      ],
      "name": "deposit",
      "outputs": [],
      "stateMutability": "payable",
      "type": "function"
    },
    {
      "inputs": [
        {
          "internalType": "uint256",
          "name": "agentId",
          "type": "uint256"
        }
      ],
      "name": "getBalance",
      "outputs": [
        {
          "internalType": "uint256",
          "name": "",
          "type": "uint256"
        }
      ],
      "stateMutability": "view",
      "type": "function"
    },
    {
      "inputs": [
        {
          "internalType": "uint256",
          "name": "agentId",
          "type": "uint256"
        }
      ],
      "name": "getWallet",
      "outputs": [
        {
          "internalType": "uint256",
          "name": "balance",
          "type": "uint256"
        },
        {
          "internalType": "uint256",
          "name": "totalEarned",
          "type": "uint256"
        },
        {
          "internalType": "uint256",
          "name": "totalSpent",
          "type": "uint256"
        },
        {
          "internalType": "uint256",
          "name": "lastActiveBlock",
          "type": "uint256"
        }
      ],
      "stateMutability": "view",
      "type": "function"
    },
    {
      "inputs": [
        {
          "internalType": "uint256",
          "name": "agentId",
          "type": "uint256"
        }
      ],
      "name": "isAgentRegistered",
      "outputs": [
        {
          "internalType": "bool",
          "name": "",
          "type": "bool"
        }
      ],
      "stateMutability": "view",
      "type": "function"
    },
    {
      "inputs": [],
      "name": "owner",
      "outputs": [
        {
          "internalType": "address",
          "name": "",
          "type": "address"
        }
      ],
      "stateMutability": "view",
      "type": "function"
    },
    {
      "inputs": [
        {
          "internalType": "uint256",
          "name": "agentId",
          "type": "uint256"
        }
      ],
      "name": "registerAgent",
      "outputs": [],
      "stateMutability": "nonpayable",
      "type": "function"
    },
    {
      "inputs": [
        {
          "internalType": "uint256",
          "name": "agentId",
          "type": "uint256"
        }
      ],
      "name": "registerAgentByModule",
      "outputs": [],
      "stateMutability": "nonpayable",
      "type": "function"
    },
    {
      "inputs": [],
      "name": "renounceOwnership",
      "outputs": [],
      "stateMutability": "nonpayable",
      "type": "function"
    },
    {
      "inputs": [
        {
          "internalType": "uint256",
          "name": "fromId",
          "type": "uint256"
        },
        {
          "internalType": "uint256",
          "name": "toId",
          "type": "uint256"
        },
        {
          "internalType": "uint256",
          "name": "amount",
          "type": "uint256"
        }
      ],
      "name": "transfer",
      "outputs": [],
      "stateMutability": "nonpayable",
      "type": "function"
    },
    {
      "inputs": [
        {
          "internalType": "address",
          "name": "newOwner",
          "type": "address"
        }
      ],
      "name": "transferOwnership",
      "outputs": [],
      "stateMutability": "nonpayable",
      "type": "function"
    },
    {
      "inputs": [
        {
          "internalType": "uint256",
          "name": "agentId",
          "type": "uint256"
        },
        {
          "internalType": "uint256",
          "name": "amount",
          "type": "uint256"
        },
        {
          "internalType": "address payable",
          "name": "to",
          "type": "address"
        }
      ],
      "name": "withdraw",
      "outputs": [],
      "stateMutability": "nonpayable",
      "type": "function"
    },
    {
      "stateMutability": "payable",
      "type": "receive"
    }
  ],
  "bytecode": "0x608060405234801561001057600080fd5b50338061003757604051631e4fbdf760e01b81526000600482015260240160405180910390fd5b6100408161004a565b506001805561009a565b600080546001600160a01b038381166001600160a01b0319831681178455604051919092169283917f8be0079c531659141344cd1fd0a4f28419497f9722a3daafe3b4186f6b6457e09190a35050565b6112ab806100a96000396000f3fe6080604052600436106101185760003560e01c80637300c72a116100a0578063a6f7986111610064578063a6f7986114610377578063b6b55f2514610397578063c43cdbb8146103aa578063c82a1089146103ca578063f2fde38b146103ea57600080fd5b80637300c72a146102c55780637c0d2bc9146102e05780638da5cb5b146102fc57806390dd2627146103245780639d18755d1461034457600080fd5b80635488ba93116100e75780635488ba931461022757806359b2c1ae146102475780635d0ff59f14610274578063642de4ab14610294578063715018a6146102b057600080fd5b80630ad58d2f1461012457806317f6fe5b146101465780631e0104391461018b5780635470b13b146101c657600080fd5b3661011f57005b600080fd5b34801561013057600080fd5b5061014461013f36600461100b565b61040a565b005b34801561015257600080fd5b50610176610161366004611044565b60036020526000908152604090205460ff1681565b60405190151581526020015b60405180910390f35b34801561019757600080fd5b506101b86101a6366004611068565b60009081526002602052604090205490565b604051908152602001610182565b3480156101d257600080fd5b506102076101e1366004611068565b600090815260026020819052604090912080546001820154928201546003909201549093565b604080519485526020850193909352918301526060820152608001610182565b34801561023357600080fd5b50610144610242366004611081565b610644565b34801561025357600080fd5b50610267610262366004611068565b6107bc565b60405161018291906110db565b34801561028057600080fd5b5061014461028f366004611068565b61081b565b3480156102a057600080fd5b506101b867016345785d8a000081565b3480156102bc57600080fd5b5061014461082f565b3480156102d157600080fd5b506101b8662386f26fc1000081565b3480156102ec57600080fd5b506101b8670de0b6b3a764000081565b34801561030857600080fd5b506000546040516001600160a01b039091168152602001610182565b34801561033057600080fd5b5061014461033f3660046110ef565b610843565b34801561035057600080fd5b5061017661035f366004611068565b60009081526002602052604090206004015460ff1690565b34801561038357600080fd5b50610144610392366004611081565b610ab0565b6101446103a5366004611068565b610bf5565b3480156103b657600080fd5b506101446103c5366004611068565b610d88565b3480156103d657600080fd5b506101446103e536600461111b565b610db7565b3480156103f657600080fd5b50610144610405366004611044565b610e1e565b610412610e59565b600083815260026020526040902060040154839060ff1661044e5760405162461bcd60e51b815260040161044590611159565b60405180910390fd5b610456610e86565b6000848152600260205260409020548311156104845760405162461bcd60e51b815260040161044590611190565b600061048f856107bc565b6000868152600260205260408120805492935086929091906104b29084906111dd565b9091555050600085815260026020819052604082200180548692906104d89084906111f0565b909155505060008581526002602052604080822043600390910155516001600160a01b0385169086908381818185875af1925050503d8060008114610539576040519150601f19603f3d011682016040523d82523d6000602084013e61053e565b606091505b505090508061058f5760405162461bcd60e51b815260206004820152601d60248201527f4875623a207769746864726177207472616e73666572206661696c65640000006044820152606401610445565b600061059a876107bc565b9050846001600160a01b0316877f02ffa641367f5b897c0f8be81bce51f2ef055b4113d7a1e4fd082feea749bf52886040516105d891815260200190565b60405180910390a38060038111156105f2576105f26110a3565b836003811115610604576106046110a3565b1461063257866000805160206112568339815191528483604051610629929190611203565b60405180910390a25b50505061063e60018055565b50505050565b3360009081526003602052604090205460ff166106735760405162461bcd60e51b81526004016104459061121e565b600082815260026020526040902060040154829060ff166106a65760405162461bcd60e51b815260040161044590611159565b60006106b1846107bc565b6000858152600260205260408120805492935085929091906106d49084906111f0565b9091555050600084815260026020526040812060010180548592906106fa9084906111f0565b909155505060008481526002602052604081204360039091015561071d856107bc565b9050336001600160a01b0316857f3685d7009b2e31456a7e421a5e64d077df47a992e0e35d246963c21c77bbd2c78660405161075b91815260200190565b60405180910390a3806003811115610775576107756110a3565b826003811115610787576107876110a3565b146107b5578460008051602061125683398151915283836040516107ac929190611203565b60405180910390a25b5050505050565b600081815260026020526040812054670de0b6b3a764000081106107e35750600392915050565b67016345785d8a000081106107fb5750600292915050565b662386f26fc1000081106108125750600192915050565b50600092915050565b610823610e59565b61082c81610eb0565b50565b610837610e59565b6108416000610fa6565b565b61084b610e59565b600083815260026020526040902060040154839060ff1661087e5760405162461bcd60e51b815260040161044590611159565b600083815260026020526040902060040154839060ff166108b15760405162461bcd60e51b815260040161044590611159565b6000858152600260205260409020548311156108df5760405162461bcd60e51b815260040161044590611190565b60006108ea866107bc565b905060006108f7866107bc565b60008881526002602052604081208054929350879290919061091a9084906111dd565b9091555050600087815260026020819052604082200180548792906109409084906111f0565b9091555050600086815260026020526040812080548792906109639084906111f0565b9091555050600086815260026020526040812060010180548792906109899084906111f0565b909155505060008781526002602052604080822043600391820181905589845291832001556109b7886107bc565b905060006109c4886107bc565b905087897fe83ae817d487e687cf0dec47aa9522f61efb88e84a2bbfcbc46d96cddc9e33f2896040516109f991815260200190565b60405180910390a3816003811115610a1357610a136110a3565b846003811115610a2557610a256110a3565b14610a5357886000805160206112568339815191528584604051610a4a929190611203565b60405180910390a25b806003811115610a6557610a656110a3565b836003811115610a7757610a776110a3565b14610aa557876000805160206112568339815191528483604051610a9c929190611203565b60405180910390a25b505050505050505050565b3360009081526003602052604090205460ff16610adf5760405162461bcd60e51b81526004016104459061121e565b600082815260026020526040902060040154829060ff16610b125760405162461bcd60e51b815260040161044590611159565b600083815260026020526040902054821115610b405760405162461bcd60e51b815260040161044590611190565b6000610b4b846107bc565b600085815260026020526040812080549293508592909190610b6e9084906111dd565b909155505060008481526002602081905260408220018054859290610b949084906111f0565b9091555050600084815260026020526040812043600390910155610bb7856107bc565b9050336001600160a01b0316857f7bfc397147888d83a412225b0d46ba1ecf1db1d7df335a89423a998fb1f817698660405161075b91815260200190565b600081815260026020526040902060040154819060ff16610c285760405162461bcd60e51b815260040161044590611159565b610c30610e86565b60003411610c745760405162461bcd60e51b8152602060048201526011602482015270121d588e881e995c9bc819195c1bdcda5d607a1b6044820152606401610445565b6000610c7f836107bc565b600084815260026020526040812080549293503492909190610ca29084906111f0565b909155505060008381526002602052604081206001018054349290610cc89084906111f0565b9091555050600083815260026020526040812043600390910155610ceb846107bc565b9050837f06da3309189fa49284f335d2c2bcb4cb0b8ad2a59ad92a9bdebeeb8f1ceba51134604051610d1f91815260200190565b60405180910390a2806003811115610d3957610d396110a3565b826003811115610d4b57610d4b6110a3565b14610d7957836000805160206112568339815191528383604051610d70929190611203565b60405180910390a25b5050610d8460018055565b5050565b3360009081526003602052604090205460ff166108235760405162461bcd60e51b81526004016104459061121e565b610dbf610e59565b6001600160a01b038216600081815260036020908152604091829020805460ff191685151590811790915591519182527f7bfed9e73cc01c459d482800942a9eef9046d01f68c4881d389495df294d10ca910160405180910390a25050565b610e26610e59565b6001600160a01b038116610e5057604051631e4fbdf760e01b815260006004820152602401610445565b61082c81610fa6565b6000546001600160a01b031633146108415760405163118cdaa760e01b8152336004820152602401610445565b600260015403610ea957604051633ee5aeb560e01b815260040160405180910390fd5b6002600155565b60008181526002602052604090206004015460ff1615610f125760405162461bcd60e51b815260206004820152601760248201527f4875623a20616c726561647920726567697374657265640000000000000000006044820152606401610445565b6040805160a0810182526000808252602080830182815283850183815243606086019081526001608087018181528987526002958690528887209751885593519087015590519285019290925590516003840155516004909201805460ff191692151592909217909155905182917f7889fb3af617fa63644484c3243b8aa95edf844fcdff4c9160adf5de94d7225591a250565b600080546001600160a01b038381166001600160a01b0319831681178455604051919092169283917f8be0079c531659141344cd1fd0a4f28419497f9722a3daafe3b4186f6b6457e09190a35050565b6001600160a01b038116811461082c57600080fd5b60008060006060848603121561102057600080fd5b8335925060208401359150604084013561103981610ff6565b809150509250925092565b60006020828403121561105657600080fd5b813561106181610ff6565b9392505050565b60006020828403121561107a57600080fd5b5035919050565b6000806040838503121561109457600080fd5b50508035926020909101359150565b634e487b7160e01b600052602160045260246000fd5b600481106110d757634e487b7160e01b600052602160045260246000fd5b9052565b602081016110e982846110b9565b92915050565b60008060006060848603121561110457600080fd5b505081359360208301359350604090920135919050565b6000806040838503121561112e57600080fd5b823561113981610ff6565b91506020830135801515811461114e57600080fd5b809150509250929050565b60208082526019908201527f4875623a206167656e74206e6f74207265676973746572656400000000000000604082015260600190565b60208082526019908201527f4875623a20696e73756666696369656e742062616c616e636500000000000000604082015260600190565b634e487b7160e01b600052601160045260246000fd5b818103818111156110e9576110e96111c7565b808201808211156110e9576110e96111c7565b6040810161121182856110b9565b61106160208301846110b9565b6020808252601a908201527f4875623a206e6f7420617574686f72697a6564206d6f64756c6500000000000060408201526060019056fee4617657d9254e34fea36fd76ef71aea57ff771484a00d5a0874fcdb7641b489a2646970667358221220c8673b4de5c41e71ee9d57486b59f489252b6244656611e902758e6850a80df164736f6c63430008180033",
  "linkReferences": {},
  "deployedLinkReferences": {}
}