{
  "_format": "hh-sol-artifact-1",
  "contractName": "SkillMarketplace",
  "sourceName": "contracts/web4/SkillMarketplace.sol",
  "abi": [
    {
      "inputs": [
        {
          "internalType": "address",
          "name": "_hub",
          "type": "address"
        },
        {
          "internalType": "address",
          "name": "_treasury",
          "type": "address"
        }
      ],
      "stateMutability": "nonpayable",
      "type": "constructor"
    },
    {
      "inputs": [
        {
          "internalType": "address",
          "name": "owner",
          "type": "address"
        }
      ],
      "name": "OwnableInvalidOwner",
      "type": "error"
    },
    {
      "inputs": [
        {
          "internalType": "address",
          "name": "account",
          "type": "address"
        }
      ],
      "name": "OwnableUnauthorizedAccount",
      "type": "error"
    },
    {
      "inputs": [],
      "name": "ReentrancyGuardReentrantCall",
      "type": "error"
    },
    {
      "anonymous": false,
      "inputs": [
        {
          "indexed": true,
          "internalType": "address",
          "name": "previousOwner",
          "type": "address"
        },
        {
          "indexed": true,
          "internalType": "address",
          "name": "newOwner",
          "type": "address"
        }
      ],
      "name": "OwnershipTransferred",
      "type": "event"
    },
    {
      "anonymous": false,
      "inputs": [
        {
          "indexed": false,
          "internalType": "uint256",
          "name": "oldBps",
          "type": "uint256"
        },
        {
          "indexed": false,
          "internalType": "uint256",
          "name": "newBps",
          "type": "uint256"
        }
      ],
      "name": "PlatformFeeUpdated",
      "type": "event"
    },
    {
      "anonymous": false,
      "inputs": [
        {
          "indexed": true,
          "internalType": "uint256",
          "name": "skillId",
          "type": "uint256"
        }
      ],
      "name": "SkillDeactivated",
      "type": "event"
    },
    {
      "anonymous": false,
      "inputs": [
        {
          "indexed": true,
          "internalType": "uint256",
          "name": "skillId",
          "type": "uint256"
        },
        {
          "indexed": true,
          "internalType": "uint256",
          "name": "agentId",
          "type": "uint256"
        },
        {
          "indexed": false,
          "internalType": "string",
          "name": "name",
          "type": "string"
        },
        {
          "indexed": false,
          "internalType": "uint256",
          "name": "price",
          "type": "uint256"
        }
      ],
      "name": "SkillListed",
      "type": "event"
    },
    {
      "anonymous": false,
      "inputs": [
        {
          "indexed": true,
          "internalType": "uint256",
          "name": "skillId",
          "type": "uint256"
        },
        {
          "indexed": true,
          "internalType": "uint256",
          "name": "buyerId",
          "type": "uint256"
        },
        {
          "indexed": true,
          "internalType": "uint256",
          "name": "sellerId",
          "type": "uint256"
        },
        {
          "indexed": false,
          "internalType": "uint256",
          "name": "price",
          "type": "uint256"
        },
        {
          "indexed": false,
          "internalType": "uint256",
          "name": "platformFee",
          "type": "uint256"
        },
        {
          "indexed": false,
          "internalType": "uint256",
          "name": "parentShare",
          "type": "uint256"
        },
        {
          "indexed": false,
          "internalType": "uint256",
          "name": "sellerReceived",
          "type": "uint256"
        }
      ],
      "name": "SkillPurchased",
      "type": "event"
    },
    {
      "inputs": [],
      "name": "accumulatedPlatformFees",
      "outputs": [
        {
          "internalType": "uint256",
          "name": "",
          "type": "uint256"
        }
      ],
      "stateMutability": "view",
      "type": "function"
    },
    {
      "inputs": [
        {
          "internalType": "uint256",
          "name": "",
          "type": "uint256"
        },
        {
          "internalType": "uint256",
          "name": "",
          "type": "uint256"
        }
      ],
      "name": "agentOwnsSkill",
      "outputs": [
        {
          "internalType": "bool",
          "name": "",
          "type": "bool"
        }
      ],
      "stateMutability": "view",
      "type": "function"
    },
    {
      "inputs": [
        {
          "internalType": "uint256",
          "name": "skillId",
          "type": "uint256"
        }
      ],
      "name": "deactivateSkill",
      "outputs": [],
      "stateMutability": "nonpayable",
      "type": "function"
    },
    {
      "inputs": [
        {
          "internalType": "uint256",
          "name": "skillId",
          "type": "uint256"
        }
      ],
      "name": "getSkill",
      "outputs": [
        {
          "internalType": "uint256",
          "name": "agentId",
          "type": "uint256"
        },
        {
          "internalType": "string",
          "name": "name",
          "type": "string"
        },
        {
          "internalType": "string",
          "name": "metadataUri",
          "type": "string"
        },
        {
          "internalType": "uint256",
          "name": "price",
          "type": "uint256"
        },
        {
          "internalType": "uint256",
          "name": "totalSales",
          "type": "uint256"
        },
        {
          "internalType": "uint256",
          "name": "totalRevenue",
          "type": "uint256"
        },
        {
          "internalType": "bool",
          "name": "isActive",
          "type": "bool"
        }
      ],
      "stateMutability": "view",
      "type": "function"
    },
    {
      "inputs": [],
      "name": "hub",
      "outputs": [
        {
          "internalType": "contract IAgentEconomyHub",
          "name": "",
          "type": "address"
        }
      ],
      "stateMutability": "view",
      "type": "function"
    },
    {
      "inputs": [],
      "name": "lineageContract",
      "outputs": [
        {
          "internalType": "contract IAgentLineage",
          "name": "",
          "type": "address"
        }
      ],
      "stateMutability": "view",
      "type": "function"
    },
    {
      "inputs": [
        {
          "internalType": "uint256",
          "name": "agentId",
          "type": "uint256"
        },
        {
          "internalType": "string",
          "name": "name",
          "type": "string"
        },
        {
          "internalType": "string",
          "name": "metadataUri",
          "type": "string"
        },
        {
          "internalType": "uint256",
          "name": "price",
          "type": "uint256"
        }
      ],
      "name": "listSkill",
      "outputs": [
        {
          "internalType": "uint256",
          "name": "",
          "type": "uint256"
        }
      ],
      "stateMutability": "nonpayable",
      "type": "function"
    },
    {
      "inputs": [],
      "name": "nextSkillId",
      "outputs": [
        {
          "internalType": "uint256",
          "name": "",
          "type": "uint256"
        }
      ],
      "stateMutability": "view",
      "type": "function"
    },
    {
      "inputs": [],
      "name": "owner",
      "outputs": [
        {
          "internalType": "address",
          "name": "",
          "type": "address"
        }
      ],
      "stateMutability": "view",
      "type": "function"
    },
    {
      "inputs": [],
      "name": "platformFeeBps",
      "outputs": [
        {
          "internalType": "uint256",
          "name": "",
          "type": "uint256"
        }
      ],
      "stateMutability": "view",
      "type": "function"
    },
    {
      "inputs": [],
      "name": "platformTreasury",
      "outputs": [
        {
          "internalType": "address",
          "name": "",
          "type": "address"
        }
      ],
      "stateMutability": "view",
      "type": "function"
    },
    {
      "inputs": [
        {
          "internalType": "uint256",
          "name": "buyerId",
          "type": "uint256"
        },
        {
          "internalType": "uint256",
          "name": "skillId",
          "type": "uint256"
        }
      ],
      "name": "purchaseSkill",
      "outputs": [],
      "stateMutability": "nonpayable",
      "type": "function"
    },
    {
      "inputs": [],
      "name": "renounceOwnership",
      "outputs": [],
      "stateMutability": "nonpayable",
      "type": "function"
    },
    {
      "inputs": [
        {
          "internalType": "address",
          "name": "_lineage",
          "type": "address"
        }
      ],
      "name": "setLineageContract",
      "outputs": [],
      "stateMutability": "nonpayable",
      "type": "function"
    },
    {
      "inputs": [
        {
          "internalType": "uint256",
          "name": "newBps",
          "type": "uint256"
        }
      ],
      "name": "setPlatformFee",
      "outputs": [],
      "stateMutability": "nonpayable",
      "type": "function"
    },
    {
      "inputs": [
        {
          "internalType": "uint256",
          "name": "",
          "type": "uint256"
        }
      ],
      "name": "skills",
      "outputs": [
        {
          "internalType": "uint256",
          "name": "agentId",
          "type": "uint256"
        },
        {
          "internalType": "string",
          "name": "name",
          "type": "string"
        },
        {
          "internalType": "string",
          "name": "metadataUri",
          "type": "string"
        },
        {
          "internalType": "uint256",
          "name": "price",
          "type": "uint256"
        },
        {
          "internalType": "uint256",
          "name": "totalSales",
          "type": "uint256"
        },
        {
          "internalType": "uint256",
          "name": "totalRevenue",
          "type": "uint256"
        },
        {
          "internalType": "bool",
          "name": "isActive",
          "type": "bool"
        },
        {
          "internalType": "bool",
          "name": "exists",
          "type": "bool"
        }
      ],
      "stateMutability": "view",
      "type": "function"
    },
    {
      "inputs": [
        {
          "internalType": "address",
          "name": "newOwner",
          "type": "address"
        }
      ],
      "name": "transferOwnership",
      "outputs": [],
      "stateMutability": "nonpayable",
      "type": "function"
    },
    {
      "inputs": [],
      "name": "withdrawPlatformFees",
      "outputs": [],
      "stateMutability": "nonpayable",
      "type": "function"
    }
  ],
  "bytecode": "0x608060405260fa60045560016006553480156200001b57600080fd5b506040516200187b3803806200187b8339810160408190526200003e9162000114565b33806200006557604051631e4fbdf760e01b81526000600482015260240160405180910390fd5b6200007081620000a7565b5060018055600280546001600160a01b039384166001600160a01b031991821617909155600580549290931691161790556200014c565b600080546001600160a01b038381166001600160a01b0319831681178455604051919092169283917f8be0079c531659141344cd1fd0a4f28419497f9722a3daafe3b4186f6b6457e09190a35050565b80516001600160a01b03811681146200010f57600080fd5b919050565b600080604083850312156200012857600080fd5b6200013383620000f7565b91506200014360208401620000f7565b90509250929050565b61171f806200015c6000396000f3fe608060405234801561001057600080fd5b50600436106101165760003560e01c80638da5cb5b116100a2578063cb94812611610071578063cb94812614610266578063d0b7830b14610279578063e138818c14610281578063f2fde38b14610294578063f6e294e0146102a757600080fd5b80638da5cb5b146101de57806390eb584d146101ef57806395eb9a881461022d578063bd880fae1461024057600080fd5b8063365a86fc116100e9578063365a86fc1461015e57806350d15fbe1461018957806355894548146101b0578063715018a6146101c35780638caf9b3f146101cb57600080fd5b806312e8e2c31461011b57806322dcd13e14610130578063342f2df31461014c57806334306d2514610155575b600080fd5b61012e61012936600461120f565b6102ba565b005b61013960045481565b6040519081526020015b60405180910390f35b61013960075481565b61013960065481565b600254610171906001600160a01b031681565b6040516001600160a01b039091168152602001610143565b61019c61019736600461120f565b61035a565b60405161014398979695949392919061126e565b6101396101be366004611315565b6104b2565b61012e610788565b61012e6101d9366004611397565b61079c565b6000546001600160a01b0316610171565b61021d6101fd366004611397565b600960209081526000928352604080842090915290825290205460ff1681565b6040519015158152602001610143565b61012e61023b3660046113b9565b610d07565b61025361024e36600461120f565b610d31565b60405161014397969594939291906113e9565b600354610171906001600160a01b031681565b61012e610f05565b600554610171906001600160a01b031681565b61012e6102a23660046113b9565b611079565b61012e6102b536600461120f565b6110b7565b6102c2611168565b6103e88111156103195760405162461bcd60e51b815260206004820152601960248201527f4d61726b6574706c6163653a2066656520746f6f20686967680000000000000060448201526064015b60405180910390fd5b60045460408051918252602082018390527fd347e206f25a89b917fc9482f1a2d294d749baa4dc9bde7fb495ee11fe491643910160405180910390a1600455565b6008602052600090815260409020805460018201805491929161037c9061143d565b80601f01602080910402602001604051908101604052809291908181526020018280546103a89061143d565b80156103f55780601f106103ca576101008083540402835291602001916103f5565b820191906000526020600020905b8154815290600101906020018083116103d857829003601f168201915b50505050509080600201805461040a9061143d565b80601f01602080910402602001604051908101604052809291908181526020018280546104369061143d565b80156104835780601f1061045857610100808354040283529160200191610483565b820191906000526020600020905b81548152906001019060200180831161046657829003601f168201915b505050506003830154600484015460058501546006909501549394919390925060ff8082169161010090041688565b60006104bc611168565b600254604051639d18755d60e01b8152600481018990526001600160a01b0390911690639d18755d90602401602060405180830381865afa158015610505573d6000803e3d6000fd5b505050506040513d601f19601f82011682018060405250810190610529919061148c565b61057f5760405162461bcd60e51b815260206004820152602160248201527f4d61726b6574706c6163653a206167656e74206e6f74207265676973746572656044820152601960fa1b6064820152608401610310565b600082116105cf5760405162461bcd60e51b815260206004820152601760248201527f4d61726b6574706c6163653a207a65726f2070726963650000000000000000006044820152606401610310565b60068054600091826105e0836114bd565b91905055905060405180610100016040528089815260200188888080601f016020809104026020016040519081016040528093929190818152602001838380828437600092019190915250505090825250604080516020601f8901819004810282018101909252878152918101919088908890819084018382808284376000920182905250938552505050602080830187905260408084018390526060840183905260016080850181905260a090940184905285835260088252909120835181559083015190918201906106b4908261153d565b50604082015160028201906106c9908261153d565b50606082015160038201556080820151600482015560a0820151600582015560c08201516006909101805460e09093015115156101000261ff00199215159290921661ffff1990931692909217179055600088815260096020908152604080832084845290915290819020805460ff1916600117905551889082907f9980ae0641bc48d1f97c8a752d2cfd1560bc62b941bd3ee8430a654caeb188bf90610775908b908b9089906115fd565b60405180910390a3979650505050505050565b610790611168565b61079a6000611195565b565b6107a4611168565b6107ac6111e5565b60008181526008602052604090206006810154610100900460ff1680156107d75750600681015460ff165b6108235760405162461bcd60e51b815260206004820152601e60248201527f4d61726b6574706c6163653a20736b696c6c20756e617661696c61626c6500006044820152606401610310565b600254604051639d18755d60e01b8152600481018590526001600160a01b0390911690639d18755d90602401602060405180830381865afa15801561086c573d6000803e3d6000fd5b505050506040513d601f19601f82011682018060405250810190610890919061148c565b6108e65760405162461bcd60e51b815260206004820152602160248201527f4d61726b6574706c6163653a206275796572206e6f74207265676973746572656044820152601960fa1b6064820152608401610310565b80548390036109415760405162461bcd60e51b815260206004820152602160248201527f4d61726b6574706c6163653a2063616e6e6f7420627579206f776e20736b696c6044820152601b60fa1b6064820152608401610310565b6003810154600254604051631e01043960e01b8152600481018690526001600160a01b0390911690631e01043990602401602060405180830381865afa15801561098f573d6000803e3d6000fd5b505050506040513d601f19601f820116820180604052508101906109b39190611636565b1015610a0b5760405162461bcd60e51b815260206004820152602160248201527f4d61726b6574706c6163653a20696e73756666696369656e742062616c616e636044820152606560f81b6064820152608401610310565b600381015460045460009061271090610a24908461164f565b610a2e919061166c565b6003549091506000906001600160a01b031615610b545760035484546040516320a299ef60e11b81526004810191909152600091829182916001600160a01b03169063414533de90602401606060405180830381865afa158015610a96573d6000803e3d6000fd5b505050506040513d601f19601f82011682018060405250810190610aba919061168e565b925092509250808015610acd5750600082115b15610b5057612710610adf838861164f565b610ae9919061166c565b600254604051635488ba9360e01b815260048101869052602481018390529195506001600160a01b031690635488ba9390604401600060405180830381600087803b158015610b3757600080fd5b505af1158015610b4b573d6000803e3d6000fd5b505050505b5050505b600081610b6184866116c3565b610b6b91906116c3565b60025460405163a6f7986160e01b8152600481018a9052602481018790529192506001600160a01b03169063a6f7986190604401600060405180830381600087803b158015610bb957600080fd5b505af1158015610bcd573d6000803e3d6000fd5b50506002548754604051635488ba9360e01b81526001600160a01b039092169350635488ba939250610c0c918590600401918252602082015260400190565b600060405180830381600087803b158015610c2657600080fd5b505af1158015610c3a573d6000803e3d6000fd5b505050508260076000828254610c5091906116d6565b9091555050600485018054906000610c67836114bd565b919050555083856005016000828254610c8091906116d6565b90915550506000878152600960209081526040808320898452825291829020805460ff191660011790558654825187815291820186905291810184905260608101839052889088907fae2614130431f49aae94c5a67ffaef14ba6ae71c73e65b76e620deef6de9b3b29060800160405180910390a45050505050610d0360018055565b5050565b610d0f611168565b600380546001600160a01b0319166001600160a01b0392909216919091179055565b6000818152600860205260408120600681015460609182918491829182918291610100900460ff16610da55760405162461bcd60e51b815260206004820152601c60248201527f4d61726b6574706c6163653a20736b696c6c206e6f7420666f756e64000000006044820152606401610310565b806000015481600101826002018360030154846004015485600501548660060160009054906101000a900460ff16858054610ddf9061143d565b80601f0160208091040260200160405190810160405280929190818152602001828054610e0b9061143d565b8015610e585780601f10610e2d57610100808354040283529160200191610e58565b820191906000526020600020905b815481529060010190602001808311610e3b57829003601f168201915b50505050509550848054610e6b9061143d565b80601f0160208091040260200160405190810160405280929190818152602001828054610e979061143d565b8015610ee45780601f10610eb957610100808354040283529160200191610ee4565b820191906000526020600020905b815481529060010190602001808311610ec757829003601f168201915b50505050509450975097509750975097509750975050919395979092949650565b610f0d611168565b610f156111e5565b600060075411610f675760405162461bcd60e51b815260206004820181905260248201527f4d61726b6574706c6163653a206e6f206665657320746f2077697468647261776044820152606401610310565b6005546001600160a01b0316610fbf5760405162461bcd60e51b815260206004820152601c60248201527f4d61726b6574706c6163653a206e6f20747265617375727920736574000000006044820152606401610310565b600780546000918290556005546040519192916001600160a01b039091169083908381818185875af1925050503d8060008114611018576040519150601f19603f3d011682016040523d82523d6000602084013e61101d565b606091505b505090508061106e5760405162461bcd60e51b815260206004820181905260248201527f4d61726b6574706c6163653a20666565207472616e73666572206661696c65646044820152606401610310565b505061079a60018055565b611081611168565b6001600160a01b0381166110ab57604051631e4fbdf760e01b815260006004820152602401610310565b6110b481611195565b50565b6110bf611168565b600081815260086020526040902060060154610100900460ff166111255760405162461bcd60e51b815260206004820152601c60248201527f4d61726b6574706c6163653a20736b696c6c206e6f7420666f756e64000000006044820152606401610310565b600081815260086020526040808220600601805460ff191690555182917fe5dd40ca0de2c3e7ebaebe2f9e8ffc4e449edfbffacddc39b61100d3de7c073b91a250565b6000546001600160a01b0316331461079a5760405163118cdaa760e01b8152336004820152602401610310565b600080546001600160a01b038381166001600160a01b0319831681178455604051919092169283917f8be0079c531659141344cd1fd0a4f28419497f9722a3daafe3b4186f6b6457e09190a35050565b60026001540361120857604051633ee5aeb560e01b815260040160405180910390fd5b6002600155565b60006020828403121561122157600080fd5b5035919050565b6000815180845260005b8181101561124e57602081850181015186830182015201611232565b506000602082860101526020601f19601f83011685010191505092915050565b60006101008a83528060208401526112888184018b611228565b9050828103604084015261129c818a611228565b60608401989098525050608081019490945260a0840192909252151560c0830152151560e0909101529392505050565b60008083601f8401126112de57600080fd5b50813567ffffffffffffffff8111156112f657600080fd5b60208301915083602082850101111561130e57600080fd5b9250929050565b6000806000806000806080878903121561132e57600080fd5b86359550602087013567ffffffffffffffff8082111561134d57600080fd5b6113598a838b016112cc565b9097509550604089013591508082111561137257600080fd5b5061137f89828a016112cc565b979a9699509497949695606090950135949350505050565b600080604083850312156113aa57600080fd5b50508035926020909101359150565b6000602082840312156113cb57600080fd5b81356001600160a01b03811681146113e257600080fd5b9392505050565b87815260e06020820152600061140260e0830189611228565b82810360408401526114148189611228565b9150508560608301528460808301528360a083015282151560c083015298975050505050505050565b600181811c9082168061145157607f821691505b60208210810361147157634e487b7160e01b600052602260045260246000fd5b50919050565b8051801515811461148757600080fd5b919050565b60006020828403121561149e57600080fd5b6113e282611477565b634e487b7160e01b600052601160045260246000fd5b6000600182016114cf576114cf6114a7565b5060010190565b634e487b7160e01b600052604160045260246000fd5b601f821115611538576000816000526020600020601f850160051c810160208610156115155750805b601f850160051c820191505b8181101561153457828155600101611521565b5050505b505050565b815167ffffffffffffffff811115611557576115576114d6565b61156b81611565845461143d565b846114ec565b602080601f8311600181146115a057600084156115885750858301515b600019600386901b1c1916600185901b178555611534565b600085815260208120601f198616915b828110156115cf578886015182559484019460019091019084016115b0565b50858210156115ed5787850151600019600388901b60f8161c191681555b5050505050600190811b01905550565b604081528260408201528284606083013760006060848301015260006060601f19601f8601168301019050826020830152949350505050565b60006020828403121561164857600080fd5b5051919050565b8082028115828204841417611666576116666114a7565b92915050565b60008261168957634e487b7160e01b600052601260045260246000fd5b500490565b6000806000606084860312156116a357600080fd5b83519250602084015191506116ba60408501611477565b90509250925092565b81810381811115611666576116666114a7565b80820180821115611666576116666114a756fea2646970667358221220bb4958efc49c44167e013736c18b67007869417897ac4ae7fc720be74598c34864736f6c63430008180033",
  "linkReferences": {},
  "deployedLinkReferences": {}
}