{
  "_format": "hh-sol-artifact-1",
  "contractName": "AgentReplication",
  "sourceName": "contracts/web4/AgentReplication.sol",
  "abi": [
    {
      "inputs": [
        {
          "internalType": "address",
          "name": "_hub",
          "type": "address"
        }
      ],
      "stateMutability": "nonpayable",
      "type": "constructor"
    },
    {
      "inputs": [
        {
          "internalType": "address",
          "name": "owner",
          "type": "address"
        }
      ],
      "name": "OwnableInvalidOwner",
      "type": "error"
    },
    {
      "inputs": [
        {
          "internalType": "address",
          "name": "account",
          "type": "address"
        }
      ],
      "name": "OwnableUnauthorizedAccount",
      "type": "error"
    },
    {
      "inputs": [],
      "name": "ReentrancyGuardReentrantCall",
      "type": "error"
    },
    {
      "anonymous": false,
      "inputs": [
        {
          "indexed": true,
          "internalType": "uint256",
          "name": "parentId",
          "type": "uint256"
        },
        {
          "indexed": true,
          "internalType": "uint256",
          "name": "childId",
          "type": "uint256"
        },
        {
          "indexed": false,
          "internalType": "uint256",
          "name": "revenueShareBps",
          "type": "uint256"
        },
        {
          "indexed": false,
          "internalType": "uint256",
          "name": "fundingAmount",
          "type": "uint256"
        },
        {
          "indexed": false,
          "internalType": "uint256",
          "name": "generation",
          "type": "uint256"
        }
      ],
      "name": "AgentReplicated",
      "type": "event"
    },
    {
      "anonymous": false,
      "inputs": [
        {
          "indexed": true,
          "internalType": "address",
          "name": "nftContract",
          "type": "address"
        }
      ],
      "name": "IdentityNftSet",
      "type": "event"
    },
    {
      "anonymous": false,
      "inputs": [
        {
          "indexed": true,
          "internalType": "address",
          "name": "previousOwner",
          "type": "address"
        },
        {
          "indexed": true,
          "internalType": "address",
          "name": "newOwner",
          "type": "address"
        }
      ],
      "name": "OwnershipTransferred",
      "type": "event"
    },
    {
      "anonymous": false,
      "inputs": [
        {
          "indexed": true,
          "internalType": "uint256",
          "name": "parentId",
          "type": "uint256"
        },
        {
          "indexed": true,
          "internalType": "uint256",
          "name": "childId",
          "type": "uint256"
        },
        {
          "indexed": false,
          "internalType": "uint256",
          "name": "amount",
          "type": "uint256"
        }
      ],
      "name": "RevenueShared",
      "type": "event"
    },
    {
      "inputs": [],
      "name": "MAX_GENERATION",
      "outputs": [
        {
          "internalType": "uint256",
          "name": "",
          "type": "uint256"
        }
      ],
      "stateMutability": "view",
      "type": "function"
    },
    {
      "inputs": [],
      "name": "MAX_REVENUE_SHARE_BPS",
      "outputs": [
        {
          "internalType": "uint256",
          "name": "",
          "type": "uint256"
        }
      ],
      "stateMutability": "view",
      "type": "function"
    },
    {
      "inputs": [
        {
          "internalType": "uint256",
          "name": "",
          "type": "uint256"
        }
      ],
      "name": "agentGeneration",
      "outputs": [
        {
          "internalType": "uint256",
          "name": "",
          "type": "uint256"
        }
      ],
      "stateMutability": "view",
      "type": "function"
    },
    {
      "inputs": [
        {
          "internalType": "uint256",
          "name": "",
          "type": "uint256"
        }
      ],
      "name": "childToParent",
      "outputs": [
        {
          "internalType": "uint256",
          "name": "parentId",
          "type": "uint256"
        },
        {
          "internalType": "uint256",
          "name": "childId",
          "type": "uint256"
        },
        {
          "internalType": "uint256",
          "name": "revenueShareBps",
          "type": "uint256"
        },
        {
          "internalType": "uint256",
          "name": "totalRevenueShared",
          "type": "uint256"
        },
        {
          "internalType": "uint256",
          "name": "generation",
          "type": "uint256"
        },
        {
          "internalType": "uint256",
          "name": "createdBlock",
          "type": "uint256"
        },
        {
          "internalType": "bool",
          "name": "exists",
          "type": "bool"
        }
      ],
      "stateMutability": "view",
      "type": "function"
    },
    {
      "inputs": [
        {
          "internalType": "uint256",
          "name": "childId",
          "type": "uint256"
        },
        {
          "internalType": "uint256",
          "name": "amount",
          "type": "uint256"
        }
      ],
      "name": "distributeRevenueShare",
      "outputs": [],
      "stateMutability": "nonpayable",
      "type": "function"
    },
    {
      "inputs": [
        {
          "internalType": "uint256",
          "name": "parentId",
          "type": "uint256"
        }
      ],
      "name": "getChildren",
      "outputs": [
        {
          "internalType": "uint256[]",
          "name": "",
          "type": "uint256[]"
        }
      ],
      "stateMutability": "view",
      "type": "function"
    },
    {
      "inputs": [
        {
          "internalType": "uint256",
          "name": "childId",
          "type": "uint256"
        }
      ],
      "name": "getLineage",
      "outputs": [
        {
          "internalType": "uint256",
          "name": "parentId",
          "type": "uint256"
        },
        {
          "internalType": "uint256",
          "name": "revenueShareBps",
          "type": "uint256"
        },
        {
          "internalType": "uint256",
          "name": "totalRevenueShared",
          "type": "uint256"
        },
        {
          "internalType": "uint256",
          "name": "generation",
          "type": "uint256"
        },
        {
          "internalType": "uint256",
          "name": "createdBlock",
          "type": "uint256"
        }
      ],
      "stateMutability": "view",
      "type": "function"
    },
    {
      "inputs": [
        {
          "internalType": "uint256",
          "name": "childId",
          "type": "uint256"
        }
      ],
      "name": "getParent",
      "outputs": [
        {
          "internalType": "uint256",
          "name": "parentId",
          "type": "uint256"
        },
        {
          "internalType": "uint256",
          "name": "revenueShareBps",
          "type": "uint256"
        },
        {
          "internalType": "bool",
          "name": "exists",
          "type": "bool"
        }
      ],
      "stateMutability": "view",
      "type": "function"
    },
    {
      "inputs": [],
      "name": "hub",
      "outputs": [
        {
          "internalType": "contract IHub",
          "name": "",
          "type": "address"
        }
      ],
      "stateMutability": "view",
      "type": "function"
    },
    {
      "inputs": [],
      "name": "identityNft",
      "outputs": [
        {
          "internalType": "contract IAgentIdentity",
          "name": "",
          "type": "address"
        }
      ],
      "stateMutability": "view",
      "type": "function"
    },
    {
      "inputs": [],
      "name": "owner",
      "outputs": [
        {
          "internalType": "address",
          "name": "",
          "type": "address"
        }
      ],
      "stateMutability": "view",
      "type": "function"
    },
    {
      "inputs": [
        {
          "internalType": "uint256",
          "name": "",
          "type": "uint256"
        },
        {
          "internalType": "uint256",
          "name": "",
          "type": "uint256"
        }
      ],
      "name": "parentToChildren",
      "outputs": [
        {
          "internalType": "uint256",
          "name": "",
          "type": "uint256"
        }
      ],
      "stateMutability": "view",
      "type": "function"
    },
    {
      "inputs": [],
      "name": "renounceOwnership",
      "outputs": [],
      "stateMutability": "nonpayable",
      "type": "function"
    },
    {
      "inputs": [
        {
          "internalType": "uint256",
          "name": "parentId",
          "type": "uint256"
        },
        {
          "internalType": "uint256",
          "name": "childId",
          "type": "uint256"
        },
        {
          "internalType": "uint256",
          "name": "revenueShareBps",
          "type": "uint256"
        },
        {
          "internalType": "uint256",
          "name": "fundingAmount",
          "type": "uint256"
        }
      ],
      "name": "replicate",
      "outputs": [],
      "stateMutability": "nonpayable",
      "type": "function"
    },
    {
      "inputs": [
        {
          "internalType": "address",
          "name": "_nft",
          "type": "address"
        }
      ],
      "name": "setIdentityNft",
      "outputs": [],
      "stateMutability": "nonpayable",
      "type": "function"
    },
    {
      "inputs": [],
      "name": "totalReplications",
      "outputs": [
        {
          "internalType": "uint256",
          "name": "",
          "type": "uint256"
        }
      ],
      "stateMutability": "view",
      "type": "function"
    },
    {
      "inputs": [
        {
          "internalType": "address",
          "name": "newOwner",
          "type": "address"
        }
      ],
      "name": "transferOwnership",
      "outputs": [],
      "stateMutability": "nonpayable",
      "type": "function"
    }
  ],
  "bytecode": "0x608060405234801561001057600080fd5b5060405161100b38038061100b83398101604081905261002f916100d8565b338061005557604051631e4fbdf760e01b81526000600482015260240160405180910390fd5b61005e81610088565b5060018055600280546001600160a01b0319166001600160a01b0392909216919091179055610108565b600080546001600160a01b038381166001600160a01b0319831681178455604051919092169283917f8be0079c531659141344cd1fd0a4f28419497f9722a3daafe3b4186f6b6457e09190a35050565b6000602082840312156100ea57600080fd5b81516001600160a01b038116811461010157600080fd5b9392505050565b610ef4806101176000396000f3fe608060405234801561001057600080fd5b506004361061010b5760003560e01c806352ff6baf116100a25780638d2e6617116100715780638d2e6617146102f25780638da5cb5b146103055780639dd7fdc414610316578063b5ae205814610329578063f2fde38b1461033257600080fd5b806352ff6baf1461029457806357c6cc391461029c578063715018a6146102d75780637766fd25146102df57600080fd5b806337c0716e116100de57806337c0716e146101fb578063414533de1461021b57806349ae8dc31461026b5780634aa9088f1461028b57600080fd5b80630603dba9146101105780630991dbf614610125578063215345ba1461014b578063365a86fc146101d0575b600080fd5b61012361011e366004610d21565b610345565b005b610138610133366004610d21565b6104a7565b6040519081526020015b60405180910390f35b610199610159366004610d43565b6004602081905260009182526040909120805460018201546002830154600384015494840154600585015460069095015493959294919390919060ff1687565b604080519788526020880196909652948601939093526060850191909152608084015260a0830152151560c082015260e001610142565b6002546101e3906001600160a01b031681565b6040516001600160a01b039091168152602001610142565b610138610209366004610d43565b60066020526000908152604090205481565b61024e610229366004610d43565b600090815260046020526040902080546002820154600690920154909260ff90911690565b604080519384526020840192909252151590820152606001610142565b61027e610279366004610d43565b6104d8565b6040516101429190610d5c565b61013860075481565b610138600a81565b6102af6102aa366004610d43565b61053a565b604080519586526020860194909452928401919091526060830152608082015260a001610142565b6101236105cc565b6101236102ed366004610da0565b6105e0565b6003546101e3906001600160a01b031681565b6000546001600160a01b03166101e3565b610123610324366004610dd0565b610632565b61013861138881565b610123610340366004610da0565b610c3c565b61034d610c7a565b6000828152600460205260409020600681015460ff166103b45760405162461bcd60e51b815260206004820152601d60248201527f5265706c69636174696f6e3a206e6f206c696e6561676520666f756e6400000060448201526064015b60405180910390fd5b60006127108260020154846103c99190610e18565b6103d39190610e35565b9050806000036103e35750505050565b6002548254604051635488ba9360e01b81526001600160a01b0390921691635488ba939161041e918590600401918252602082015260400190565b600060405180830381600087803b15801561043857600080fd5b505af115801561044c573d6000803e3d6000fd5b50505050808260030160008282546104649190610e57565b909155505081546040518281528591907f462f33366637f54810c6df74aa5d2dce053d73456eac2dee9552dcc4ee64188e9060200160405180910390a350505050565b600560205281600052604060002081815481106104c357600080fd5b90600052602060002001600091509150505481565b60008181526005602090815260409182902080548351818402810184019094528084526060939283018282801561052e57602002820191906000526020600020905b81548152602001906001019080831161051a575b50505050509050919050565b60008181526004602052604081206006810154829182918291829160ff166105a45760405162461bcd60e51b815260206004820152601760248201527f5265706c69636174696f6e3a206e6f206c696e6561676500000000000000000060448201526064016103ab565b8054600282015460038301546004840154600590940154929a91995097509195509350915050565b6105d4610c7a565b6105de6000610ca7565b565b6105e8610c7a565b600380546001600160a01b0319166001600160a01b0383169081179091556040517fbb47c6860f9fa0a8caf8976d0dc21b276cb58a2c19f07621c1e055102a6686c390600090a250565b61063a610c7a565b610642610cf7565b600254604051639d18755d60e01b8152600481018690526001600160a01b0390911690639d18755d90602401602060405180830381865afa15801561068b573d6000803e3d6000fd5b505050506040513d601f19601f820116820180604052508101906106af9190610e6a565b6107065760405162461bcd60e51b815260206004820152602260248201527f5265706c69636174696f6e3a20706172656e74206e6f74207265676973746572604482015261195960f21b60648201526084016103ab565b600254604051639d18755d60e01b8152600481018590526001600160a01b0390911690639d18755d90602401602060405180830381865afa15801561074f573d6000803e3d6000fd5b505050506040513d601f19601f820116820180604052508101906107739190610e6a565b156107ca5760405162461bcd60e51b815260206004820152602160248201527f5265706c69636174696f6e3a206368696c6420616c72656164792065786973746044820152607360f81b60648201526084016103ab565b61138882111561081c5760405162461bcd60e51b815260206004820152601e60248201527f5265706c69636174696f6e3a207368617265206578636565647320353025000060448201526064016103ab565b60008481526006602052604081205490610837826001610e57565b9050600a8111156108965760405162461bcd60e51b815260206004820152602360248201527f5265706c69636174696f6e3a206d61782067656e65726174696f6e20726561636044820152621a195960ea1b60648201526084016103ab565b82156109ce57600254604051631e01043960e01b81526004810188905284916001600160a01b031690631e01043990602401602060405180830381865afa1580156108e5573d6000803e3d6000fd5b505050506040513d601f19601f820116820180604052508101906109099190610e8c565b10156109685760405162461bcd60e51b815260206004820152602860248201527f5265706c69636174696f6e3a20696e73756666696369656e7420706172656e746044820152672062616c616e636560c01b60648201526084016103ab565b60025460405163a6f7986160e01b815260048101889052602481018590526001600160a01b039091169063a6f7986190604401600060405180830381600087803b1580156109b557600080fd5b505af11580156109c9573d6000803e3d6000fd5b505050505b6002546040516318879b7760e31b8152600481018790526001600160a01b039091169063c43cdbb890602401600060405180830381600087803b158015610a1457600080fd5b505af1158015610a28573d6000803e3d6000fd5b505050506000831115610a9b57600254604051635488ba9360e01b815260048101879052602481018590526001600160a01b0390911690635488ba9390604401600060405180830381600087803b158015610a8257600080fd5b505af1158015610a96573d6000803e3d6000fd5b505050505b6040805160e0810182528781526020808201888152828401888152600060608501818152608086018881524360a08801908152600160c089018181528f86526004808a528b87209a518b5597518a830155955160028a015592516003890155905194870194909455925160058087019190915591516006958601805460ff19169115159190911790558b81529083528481208054928301815581528281209091018990558881529190529081208290556007805491610b5983610ea5565b90915550506003546001600160a01b031615610be657600354604051633e9122a160e11b8152306004820152602481018890526001600160a01b0390911690637d224542906044016020604051808303816000875af1158015610bc0573d6000803e3d6000fd5b505050506040513d601f19601f82011682018060405250810190610be49190610e8c565b505b6040805185815260208101859052908101829052859087907f22e50cfc23b6d2290826dd829b6f9319b09cd0177ba5bf46f7461daa41de15979060600160405180910390a35050610c3660018055565b50505050565b610c44610c7a565b6001600160a01b038116610c6e57604051631e4fbdf760e01b8152600060048201526024016103ab565b610c7781610ca7565b50565b6000546001600160a01b031633146105de5760405163118cdaa760e01b81523360048201526024016103ab565b600080546001600160a01b038381166001600160a01b0319831681178455604051919092169283917f8be0079c531659141344cd1fd0a4f28419497f9722a3daafe3b4186f6b6457e09190a35050565b600260015403610d1a57604051633ee5aeb560e01b815260040160405180910390fd5b6002600155565b60008060408385031215610d3457600080fd5b50508035926020909101359150565b600060208284031215610d5557600080fd5b5035919050565b6020808252825182820181905260009190848201906040850190845b81811015610d9457835183529284019291840191600101610d78565b50909695505050505050565b600060208284031215610db257600080fd5b81356001600160a01b0381168114610dc957600080fd5b9392505050565b60008060008060808587031215610de657600080fd5b5050823594602084013594506040840135936060013592509050565b634e487b7160e01b600052601160045260246000fd5b8082028115828204841417610e2f57610e2f610e02565b92915050565b600082610e5257634e487b7160e01b600052601260045260246000fd5b500490565b80820180821115610e2f57610e2f610e02565b600060208284031215610e7c57600080fd5b81518015158114610dc957600080fd5b600060208284031215610e9e57600080fd5b5051919050565b600060018201610eb757610eb7610e02565b506001019056fea26469706673582212203b59d7a4a54ff60d3ea53004621837ad48509063892e02c490ac631e2d5d5b5764736f6c63430008180033",
  "linkReferences": {},
  "deployedLinkReferences": {}
}