{
  "_format": "hh-sol-artifact-1",
  "contractName": "ConstitutionRegistry",
  "sourceName": "contracts/web4/ConstitutionRegistry.sol",
  "abi": [
    {
      "inputs": [],
      "stateMutability": "nonpayable",
      "type": "constructor"
    },
    {
      "inputs": [
        {
          "internalType": "address",
          "name": "owner",
          "type": "address"
        }
      ],
      "name": "OwnableInvalidOwner",
      "type": "error"
    },
    {
      "inputs": [
        {
          "internalType": "address",
          "name": "account",
          "type": "address"
        }
      ],
      "name": "OwnableUnauthorizedAccount",
      "type": "error"
    },
    {
      "anonymous": false,
      "inputs": [
        {
          "indexed": true,
          "internalType": "uint256",
          "name": "agentId",
          "type": "uint256"
        },
        {
          "indexed": false,
          "internalType": "bytes32",
          "name": "constitutionHash",
          "type": "bytes32"
        },
        {
          "indexed": false,
          "internalType": "uint256",
          "name": "lawCount",
          "type": "uint256"
        }
      ],
      "name": "ConstitutionSealed",
      "type": "event"
    },
    {
      "anonymous": false,
      "inputs": [
        {
          "indexed": true,
          "internalType": "uint256",
          "name": "agentId",
          "type": "uint256"
        },
        {
          "indexed": false,
          "internalType": "bool",
          "name": "valid",
          "type": "bool"
        }
      ],
      "name": "ConstitutionVerified",
      "type": "event"
    },
    {
      "anonymous": false,
      "inputs": [
        {
          "indexed": true,
          "internalType": "uint256",
          "name": "agentId",
          "type": "uint256"
        },
        {
          "indexed": false,
          "internalType": "uint256",
          "name": "lawIndex",
          "type": "uint256"
        },
        {
          "indexed": false,
          "internalType": "bytes32",
          "name": "lawHash",
          "type": "bytes32"
        },
        {
          "indexed": false,
          "internalType": "bool",
          "name": "isImmutable",
          "type": "bool"
        }
      ],
      "name": "LawAdded",
      "type": "event"
    },
    {
      "anonymous": false,
      "inputs": [
        {
          "indexed": true,
          "internalType": "address",
          "name": "previousOwner",
          "type": "address"
        },
        {
          "indexed": true,
          "internalType": "address",
          "name": "newOwner",
          "type": "address"
        }
      ],
      "name": "OwnershipTransferred",
      "type": "event"
    },
    {
      "inputs": [],
      "name": "MAX_LAWS",
      "outputs": [
        {
          "internalType": "uint256",
          "name": "",
          "type": "uint256"
        }
      ],
      "stateMutability": "view",
      "type": "function"
    },
    {
      "inputs": [
        {
          "internalType": "uint256",
          "name": "agentId",
          "type": "uint256"
        },
        {
          "internalType": "bytes32",
          "name": "lawHash",
          "type": "bytes32"
        },
        {
          "internalType": "bool",
          "name": "isImmutable",
          "type": "bool"
        }
      ],
      "name": "addLaw",
      "outputs": [
        {
          "internalType": "uint256",
          "name": "",
          "type": "uint256"
        }
      ],
      "stateMutability": "nonpayable",
      "type": "function"
    },
    {
      "inputs": [
        {
          "internalType": "uint256",
          "name": "agentId",
          "type": "uint256"
        }
      ],
      "name": "getConstitutionHash",
      "outputs": [
        {
          "internalType": "bytes32",
          "name": "",
          "type": "bytes32"
        }
      ],
      "stateMutability": "view",
      "type": "function"
    },
    {
      "inputs": [
        {
          "internalType": "uint256",
          "name": "agentId",
          "type": "uint256"
        },
        {
          "internalType": "uint256",
          "name": "index",
          "type": "uint256"
        }
      ],
      "name": "getLaw",
      "outputs": [
        {
          "internalType": "bytes32",
          "name": "lawHash",
          "type": "bytes32"
        },
        {
          "internalType": "uint256",
          "name": "createdBlock",
          "type": "uint256"
        },
        {
          "internalType": "bool",
          "name": "isImmutable",
          "type": "bool"
        }
      ],
      "stateMutability": "view",
      "type": "function"
    },
    {
      "inputs": [
        {
          "internalType": "uint256",
          "name": "agentId",
          "type": "uint256"
        }
      ],
      "name": "getLawCount",
      "outputs": [
        {
          "internalType": "uint256",
          "name": "",
          "type": "uint256"
        }
      ],
      "stateMutability": "view",
      "type": "function"
    },
    {
      "inputs": [
        {
          "internalType": "uint256",
          "name": "agentId",
          "type": "uint256"
        }
      ],
      "name": "isSealed",
      "outputs": [
        {
          "internalType": "bool",
          "name": "",
          "type": "bool"
        }
      ],
      "stateMutability": "view",
      "type": "function"
    },
    {
      "inputs": [],
      "name": "owner",
      "outputs": [
        {
          "internalType": "address",
          "name": "",
          "type": "address"
        }
      ],
      "stateMutability": "view",
      "type": "function"
    },
    {
      "inputs": [],
      "name": "renounceOwnership",
      "outputs": [],
      "stateMutability": "nonpayable",
      "type": "function"
    },
    {
      "inputs": [
        {
          "internalType": "uint256",
          "name": "agentId",
          "type": "uint256"
        }
      ],
      "name": "sealConstitution",
      "outputs": [],
      "stateMutability": "nonpayable",
      "type": "function"
    },
    {
      "inputs": [
        {
          "internalType": "address",
          "name": "newOwner",
          "type": "address"
        }
      ],
      "name": "transferOwnership",
      "outputs": [],
      "stateMutability": "nonpayable",
      "type": "function"
    },
    {
      "inputs": [
        {
          "internalType": "uint256",
          "name": "agentId",
          "type": "uint256"
        }
      ],
      "name": "verifyConstitution",
      "outputs": [
        {
          "internalType": "bool",
          "name": "",
          "type": "bool"
        }
      ],
      "stateMutability": "nonpayable",
      "type": "function"
    }
  ],
  "bytecode": "0x608060405234801561001057600080fd5b50338061003757604051631e4fbdf760e01b81526000600482015260240160405180910390fd5b61004081610046565b50610096565b600080546001600160a01b038381166001600160a01b0319831681178455604051919092169283917f8be0079c531659141344cd1fd0a4f28419497f9722a3daafe3b4186f6b6457e09190a35050565b6108cc806100a56000396000f3fe608060405234801561001057600080fd5b50600436106100a95760003560e01c806388bc07fc1161007157806388bc07fc146101495780638da5cb5b14610169578063a6573d0014610184578063b12a89be14610197578063d29b3992146101aa578063f2fde38b146101ca57600080fd5b80631f88e5a9146100ae5780632c1758c1146100e35780632d06077014610116578063576649a11461012b578063715018a614610141575b600080fd5b6100c16100bc36600461077e565b6101dd565b6040805193845260208401929092521515908201526060015b60405180910390f35b6101066100f13660046107a0565b60009081526003602052604090205460ff1690565b60405190151581526020016100da565b6101296101243660046107a0565b610291565b005b610133600a81565b6040519081526020016100da565b6101296103c3565b6101336101573660046107a0565b60009081526001602052604090205490565b6000546040516001600160a01b0390911681526020016100da565b6101336101923660046107b9565b6103d7565b6101066101a53660046107a0565b61057c565b6101336101b83660046107a0565b60009081526002602052604090205490565b6101296101d83660046107f7565b610637565b6000828152600160205260408120548190819084106102435760405162461bcd60e51b815260206004820181905260248201527f436f6e737469747574696f6e3a20696e646578206f7574206f662072616e676560448201526064015b60405180910390fd5b600085815260016020526040812080548690811061026357610263610827565b6000918252602090912060039091020180546001820154600290920154909891975060ff1695509350505050565b610299610675565b6000818152600160205260409020546102ec5760405162461bcd60e51b8152602060048201526015602482015274436f6e737469747574696f6e3a206e6f206c61777360581b604482015260640161023a565b60008181526003602052604090205460ff161561034b5760405162461bcd60e51b815260206004820152601c60248201527f436f6e737469747574696f6e3a20616c7265616479207365616c656400000000604482015260640161023a565b6000610356826106a2565b600083815260026020908152604080832084905560038252808320805460ff191660019081179091558252918290205482518481529182015291925083917ff29b0a7623faa468300b9e714311978833bf0611e0cd6356c0588ef3e6290448910160405180910390a25050565b6103cb610675565b6103d5600061072e565b565b60006103e1610675565b600084815260016020526040902054600a1161043f5760405162461bcd60e51b815260206004820152601e60248201527f436f6e737469747574696f6e3a206d6178206c61777320726561636865640000604482015260640161023a565b60008481526003602052604090205460ff161561049e5760405162461bcd60e51b815260206004820152601c60248201527f436f6e737469747574696f6e3a20616c7265616479207365616c656400000000604482015260640161023a565b6000848152600160208181526040808420815160808101835288815243818501908152881515938201938452606082018681528354808801855584895286892093516003909102909301928355905182870155925160029091018054935115156101000261ff00199215159290921661ffff199094169390931717909155878452908290525461052e919061083d565b604080518281526020810187905285151581830152905191925086917ff0c203d0e49e852d86777b9f79f14fc09e205b5897417c8c881cd7f9709670369181900360600190a2949350505050565b60008181526003602052604081205460ff166105da5760405162461bcd60e51b815260206004820152601860248201527f436f6e737469747574696f6e3a206e6f74207365616c65640000000000000000604482015260640161023a565b60006105e5836106a2565b60008481526002602090815260409182902054915191831480835292935085917f29639fc6382e78a13ff6dc5cabf5e570097493d654896129a59811c795fbb346910160405180910390a29392505050565b61063f610675565b6001600160a01b03811661066957604051631e4fbdf760e01b81526000600482015260240161023a565b6106728161072e565b50565b6000546001600160a01b031633146103d55760405163118cdaa760e01b815233600482015260240161023a565b6000606060005b60008481526001602052604090205481101561071f5760008481526001602052604090208054839190839081106106e2576106e2610827565b906000526020600020906003020160000154604051602001610705929190610864565b60408051601f1981840301815291905291506001016106a9565b50805160209091012092915050565b600080546001600160a01b038381166001600160a01b0319831681178455604051919092169283917f8be0079c531659141344cd1fd0a4f28419497f9722a3daafe3b4186f6b6457e09190a35050565b6000806040838503121561079157600080fd5b50508035926020909101359150565b6000602082840312156107b257600080fd5b5035919050565b6000806000606084860312156107ce57600080fd5b8335925060208401359150604084013580151581146107ec57600080fd5b809150509250925092565b60006020828403121561080957600080fd5b81356001600160a01b038116811461082057600080fd5b9392505050565b634e487b7160e01b600052603260045260246000fd5b8181038181111561085e57634e487b7160e01b600052601160045260246000fd5b92915050565b6000835160005b81811015610885576020818701810151858301520161086b565b50919091019182525060200191905056fea2646970667358221220861e68935086e71bfb917b81a90ab5384ddf4341820dc1b05abeba0e33d4a50f64736f6c63430008180033",
  "linkReferences": {},
  "deployedLinkReferences": {}
}