{
  "_format": "hh-sol-artifact-1",
  "contractName": "BUILD4Staking",
  "sourceName": "contracts/web4/BUILD4Staking.sol",
  "abi": [
    {
      "inputs": [],
      "stateMutability": "nonpayable",
      "type": "constructor"
    },
    {
      "inputs": [
        {
          "internalType": "address",
          "name": "owner",
          "type": "address"
        }
      ],
      "name": "OwnableInvalidOwner",
      "type": "error"
    },
    {
      "inputs": [
        {
          "internalType": "address",
          "name": "account",
          "type": "address"
        }
      ],
      "name": "OwnableUnauthorizedAccount",
      "type": "error"
    },
    {
      "inputs": [],
      "name": "ReentrancyGuardReentrantCall",
      "type": "error"
    },
    {
      "anonymous": false,
      "inputs": [
        {
          "indexed": true,
          "internalType": "address",
          "name": "previousOwner",
          "type": "address"
        },
        {
          "indexed": true,
          "internalType": "address",
          "name": "newOwner",
          "type": "address"
        }
      ],
      "name": "OwnershipTransferred",
      "type": "event"
    },
    {
      "anonymous": false,
      "inputs": [
        {
          "indexed": false,
          "internalType": "uint256",
          "name": "reward",
          "type": "uint256"
        }
      ],
      "name": "RewardAdded",
      "type": "event"
    },
    {
      "anonymous": false,
      "inputs": [
        {
          "indexed": true,
          "internalType": "address",
          "name": "user",
          "type": "address"
        },
        {
          "indexed": false,
          "internalType": "uint256",
          "name": "reward",
          "type": "uint256"
        }
      ],
      "name": "RewardClaimed",
      "type": "event"
    },
    {
      "anonymous": false,
      "inputs": [
        {
          "indexed": true,
          "internalType": "address",
          "name": "user",
          "type": "address"
        },
        {
          "indexed": false,
          "internalType": "uint256",
          "name": "amount",
          "type": "uint256"
        },
        {
          "indexed": false,
          "internalType": "uint256",
          "name": "lockDuration",
          "type": "uint256"
        }
      ],
      "name": "Staked",
      "type": "event"
    },
    {
      "anonymous": false,
      "inputs": [
        {
          "indexed": true,
          "internalType": "address",
          "name": "token",
          "type": "address"
        }
      ],
      "name": "TokenSet",
      "type": "event"
    },
    {
      "anonymous": false,
      "inputs": [
        {
          "indexed": true,
          "internalType": "address",
          "name": "user",
          "type": "address"
        },
        {
          "indexed": false,
          "internalType": "uint256",
          "name": "amount",
          "type": "uint256"
        }
      ],
      "name": "Unstaked",
      "type": "event"
    },
    {
      "inputs": [],
      "name": "LOCK_180D_MULTIPLIER",
      "outputs": [
        {
          "internalType": "uint256",
          "name": "",
          "type": "uint256"
        }
      ],
      "stateMutability": "view",
      "type": "function"
    },
    {
      "inputs": [],
      "name": "LOCK_30D_MULTIPLIER",
      "outputs": [
        {
          "internalType": "uint256",
          "name": "",
          "type": "uint256"
        }
      ],
      "stateMutability": "view",
      "type": "function"
    },
    {
      "inputs": [],
      "name": "LOCK_365D_MULTIPLIER",
      "outputs": [
        {
          "internalType": "uint256",
          "name": "",
          "type": "uint256"
        }
      ],
      "stateMutability": "view",
      "type": "function"
    },
    {
      "inputs": [],
      "name": "LOCK_7D_MULTIPLIER",
      "outputs": [
        {
          "internalType": "uint256",
          "name": "",
          "type": "uint256"
        }
      ],
      "stateMutability": "view",
      "type": "function"
    },
    {
      "inputs": [],
      "name": "LOCK_90D_MULTIPLIER",
      "outputs": [
        {
          "internalType": "uint256",
          "name": "",
          "type": "uint256"
        }
      ],
      "stateMutability": "view",
      "type": "function"
    },
    {
      "inputs": [],
      "name": "MAX_LOCK_PERIOD",
      "outputs": [
        {
          "internalType": "uint256",
          "name": "",
          "type": "uint256"
        }
      ],
      "stateMutability": "view",
      "type": "function"
    },
    {
      "inputs": [],
      "name": "MIN_LOCK_PERIOD",
      "outputs": [
        {
          "internalType": "uint256",
          "name": "",
          "type": "uint256"
        }
      ],
      "stateMutability": "view",
      "type": "function"
    },
    {
      "inputs": [
        {
          "internalType": "uint256",
          "name": "amount",
          "type": "uint256"
        },
        {
          "internalType": "uint256",
          "name": "duration",
          "type": "uint256"
        }
      ],
      "name": "addRewards",
      "outputs": [],
      "stateMutability": "nonpayable",
      "type": "function"
    },
    {
      "inputs": [],
      "name": "claimRewards",
      "outputs": [],
      "stateMutability": "nonpayable",
      "type": "function"
    },
    {
      "inputs": [
        {
          "internalType": "address",
          "name": "account",
          "type": "address"
        }
      ],
      "name": "earned",
      "outputs": [
        {
          "internalType": "uint256",
          "name": "",
          "type": "uint256"
        }
      ],
      "stateMutability": "view",
      "type": "function"
    },
    {
      "inputs": [],
      "name": "getGlobalStats",
      "outputs": [
        {
          "internalType": "uint256",
          "name": "_totalStaked",
          "type": "uint256"
        },
        {
          "internalType": "uint256",
          "name": "_totalStakers",
          "type": "uint256"
        },
        {
          "internalType": "uint256",
          "name": "_totalRewardsDistributed",
          "type": "uint256"
        },
        {
          "internalType": "uint256",
          "name": "_rewardRate",
          "type": "uint256"
        }
      ],
      "stateMutability": "view",
      "type": "function"
    },
    {
      "inputs": [
        {
          "internalType": "uint256",
          "name": "lockDuration",
          "type": "uint256"
        }
      ],
      "name": "getMultiplier",
      "outputs": [
        {
          "internalType": "uint256",
          "name": "",
          "type": "uint256"
        }
      ],
      "stateMutability": "pure",
      "type": "function"
    },
    {
      "inputs": [
        {
          "internalType": "address",
          "name": "user",
          "type": "address"
        }
      ],
      "name": "getStakeInfo",
      "outputs": [
        {
          "internalType": "uint256",
          "name": "stakedAmount",
          "type": "uint256"
        },
        {
          "internalType": "uint256",
          "name": "lockEnd",
          "type": "uint256"
        },
        {
          "internalType": "uint256",
          "name": "lockDuration",
          "type": "uint256"
        },
        {
          "internalType": "uint256",
          "name": "pendingReward",
          "type": "uint256"
        },
        {
          "internalType": "uint256",
          "name": "multiplier",
          "type": "uint256"
        },
        {
          "internalType": "uint256",
          "name": "stakedAt",
          "type": "uint256"
        }
      ],
      "stateMutability": "view",
      "type": "function"
    },
    {
      "inputs": [],
      "name": "lastUpdateTime",
      "outputs": [
        {
          "internalType": "uint256",
          "name": "",
          "type": "uint256"
        }
      ],
      "stateMutability": "view",
      "type": "function"
    },
    {
      "inputs": [],
      "name": "owner",
      "outputs": [
        {
          "internalType": "address",
          "name": "",
          "type": "address"
        }
      ],
      "stateMutability": "view",
      "type": "function"
    },
    {
      "inputs": [],
      "name": "renounceOwnership",
      "outputs": [],
      "stateMutability": "nonpayable",
      "type": "function"
    },
    {
      "inputs": [],
      "name": "rewardPerToken",
      "outputs": [
        {
          "internalType": "uint256",
          "name": "",
          "type": "uint256"
        }
      ],
      "stateMutability": "view",
      "type": "function"
    },
    {
      "inputs": [],
      "name": "rewardPerTokenStored",
      "outputs": [
        {
          "internalType": "uint256",
          "name": "",
          "type": "uint256"
        }
      ],
      "stateMutability": "view",
      "type": "function"
    },
    {
      "inputs": [],
      "name": "rewardRate",
      "outputs": [
        {
          "internalType": "uint256",
          "name": "",
          "type": "uint256"
        }
      ],
      "stateMutability": "view",
      "type": "function"
    },
    {
      "inputs": [
        {
          "internalType": "address",
          "name": "",
          "type": "address"
        }
      ],
      "name": "rewards",
      "outputs": [
        {
          "internalType": "uint256",
          "name": "",
          "type": "uint256"
        }
      ],
      "stateMutability": "view",
      "type": "function"
    },
    {
      "inputs": [
        {
          "internalType": "address",
          "name": "_token",
          "type": "address"
        }
      ],
      "name": "setStakingToken",
      "outputs": [],
      "stateMutability": "nonpayable",
      "type": "function"
    },
    {
      "inputs": [
        {
          "internalType": "uint256",
          "name": "amount",
          "type": "uint256"
        },
        {
          "internalType": "uint256",
          "name": "lockDuration",
          "type": "uint256"
        }
      ],
      "name": "stake",
      "outputs": [],
      "stateMutability": "nonpayable",
      "type": "function"
    },
    {
      "inputs": [
        {
          "internalType": "address",
          "name": "",
          "type": "address"
        }
      ],
      "name": "stakes",
      "outputs": [
        {
          "internalType": "uint256",
          "name": "amount",
          "type": "uint256"
        },
        {
          "internalType": "uint256",
          "name": "lockEnd",
          "type": "uint256"
        },
        {
          "internalType": "uint256",
          "name": "lockDuration",
          "type": "uint256"
        },
        {
          "internalType": "uint256",
          "name": "rewardDebt",
          "type": "uint256"
        },
        {
          "internalType": "uint256",
          "name": "pendingRewards",
          "type": "uint256"
        },
        {
          "internalType": "uint256",
          "name": "stakedAt",
          "type": "uint256"
        }
      ],
      "stateMutability": "view",
      "type": "function"
    },
    {
      "inputs": [],
      "name": "stakingToken",
      "outputs": [
        {
          "internalType": "contract IERC20",
          "name": "",
          "type": "address"
        }
      ],
      "stateMutability": "view",
      "type": "function"
    },
    {
      "inputs": [],
      "name": "totalRewardsDistributed",
      "outputs": [
        {
          "internalType": "uint256",
          "name": "",
          "type": "uint256"
        }
      ],
      "stateMutability": "view",
      "type": "function"
    },
    {
      "inputs": [],
      "name": "totalStaked",
      "outputs": [
        {
          "internalType": "uint256",
          "name": "",
          "type": "uint256"
        }
      ],
      "stateMutability": "view",
      "type": "function"
    },
    {
      "inputs": [],
      "name": "totalStakers",
      "outputs": [
        {
          "internalType": "uint256",
          "name": "",
          "type": "uint256"
        }
      ],
      "stateMutability": "view",
      "type": "function"
    },
    {
      "inputs": [
        {
          "internalType": "address",
          "name": "newOwner",
          "type": "address"
        }
      ],
      "name": "transferOwnership",
      "outputs": [],
      "stateMutability": "nonpayable",
      "type": "function"
    },
    {
      "inputs": [],
      "name": "unstake",
      "outputs": [],
      "stateMutability": "nonpayable",
      "type": "function"
    },
    {
      "inputs": [
        {
          "internalType": "address",
          "name": "",
          "type": "address"
        }
      ],
      "name": "userRewardPerTokenPaid",
      "outputs": [
        {
          "internalType": "uint256",
          "name": "",
          "type": "uint256"
        }
      ],
      "stateMutability": "view",
      "type": "function"
    }
  ],
  "bytecode": "0x608060405234801561001057600080fd5b50338061003757604051631e4fbdf760e01b81526000600482015260240160405180910390fd5b6100408161004a565b506001805561009a565b600080546001600160a01b038381166001600160a01b0319831681178455604051919092169283917f8be0079c531659141344cd1fd0a4f28419497f9722a3daafe3b4186f6b6457e09190a35050565b6111eb806100a96000396000f3fe608060405234801561001057600080fd5b50600436106101d95760003560e01c806382b8a67e11610104578063c79c7be8116100a2578063ee17254611610071578063ee172546146103ea578063f2fde38b146103f3578063f554016214610406578063fc41aa091461041157600080fd5b8063c79c7be8146103c8578063c8f33c91146103d0578063cd3daf9d146103d9578063df136d65146103e157600080fd5b80638da5cb5b116100de5780638da5cb5b14610389578063a51e8c5b1461039a578063adf8252d146103a2578063c3453153146103b557600080fd5b806382b8a67e1461035757806386989038146103605780638b8763471461036957600080fd5b8063385dc3df1161017c57806372f702f31161014b57806372f702f3146103075780637b0472f0146103325780637b0a47ee14610345578063817b1cd21461034e57600080fd5b8063385dc3df146102c157806364885c6a146102cb5780636b4169c3146102d3578063715018a6146102ff57600080fd5b80631e9b12ef116101b85780631e9b12ef146102945780632def6620146102a9578063300112d4146102b1578063372500ab146102b957600080fd5b80628cc262146101de5780630700037d1461020457806316934fc414610224575b600080fd5b6101f16101ec36600461107d565b610424565b6040519081526020015b60405180910390f35b6101f161021236600461107d565b600a6020526000908152604090205481565b61026761023236600461107d565b600860205260009081526040902080546001820154600283015460038401546004850154600590950154939492939192909186565b604080519687526020870195909552938501929092526060840152608083015260a082015260c0016101fb565b6102a76102a236600461107d565b6104d2565b005b6102a7610576565b6101f160fa81565b6102a7610833565b6101f162093a8081565b6101f1606481565b600354600b546004546005546040805194855260208501939093529183015260608201526080016101fb565b6102a76109b9565b60025461031a906001600160a01b031681565b6040516001600160a01b0390911681526020016101fb565b6102a76103403660046110ad565b6109cb565b6101f160055481565b6101f160035481565b6101f161019081565b6101f1600b5481565b6101f161037736600461107d565b60096020526000908152604090205481565b6000546001600160a01b031661031a565b6101f1607d81565b6101f16103b03660046110cf565b610d1c565b6102676103c336600461107d565b610d70565b6101f160af81565b6101f160065481565b6101f1610dd1565b6101f160075481565b6101f160045481565b6102a761040136600461107d565b610e2f565b6101f16301e1338081565b6102a761041f3660046110ad565b610e6d565b6001600160a01b03811660009081526008602052604081206002810154829061044c90610d1c565b6001600160a01b0385166000908152600a602090815260408083205460099092529091205491925090670de0b6b3a764000090606490849061048c610dd1565b61049691906110fe565b86546104a29190611117565b6104ac9190611117565b6104b6919061112e565b6104c0919061112e565b6104ca9190611150565b949350505050565b6104da610fd6565b6002546001600160a01b03161561052c5760405162461bcd60e51b8152602060048201526011602482015270151bdad95b88185b1c9958591e481cd95d607a1b60448201526064015b60405180910390fd5b600280546001600160a01b0319166001600160a01b0383169081179091556040517fa07c91c183e42229e705a9795a1c06d76528b673788b849597364528c96eefb790600090a250565b61057e611003565b33610587610dd1565b600755426006556001600160a01b038116156105d2576105a681610424565b6001600160a01b0382166000908152600a60209081526040808320939093556007546009909152919020555b33600090815260086020526040902080546106205760405162461bcd60e51b815260206004820152600e60248201526d139bdd1a1a5b99c81cdd185ad95960921b6044820152606401610523565b80600101544210156106635760405162461bcd60e51b815260206004820152600c60248201526b14dd1a5b1b081b1bd8dad95960a21b6044820152606401610523565b80546003805482919060009061067a9084906110fe565b9091555050600b805490600061068f83611163565b9091555050336000818152600a6020526040808220805490839055918555600254905163a9059cbb60e01b815260048101939093526024830184905290916001600160a01b039091169063a9059cbb906044016020604051808303816000875af1158015610701573d6000803e3d6000fd5b505050506040513d601f19601f82011682018060405250810190610725919061117a565b5080156107ef5760025460405163a9059cbb60e01b8152336004820152602481018390526001600160a01b039091169063a9059cbb906044016020604051808303816000875af115801561077d573d6000803e3d6000fd5b505050506040513d601f19601f820116820180604052508101906107a1919061117a565b5080600460008282546107b49190611150565b909155505060405181815233907f106f923f993c2149d49b4255ff723acafa1f2d94393f561d3eda32ae348f72419060200160405180910390a25b60405182815233907f0f5bb82176feb1b5e747e28471aa92156a04d9f3ab9f45f28e2d704232b93f759060200160405180910390a25050505061083160018055565b565b61083b611003565b33610844610dd1565b600755426006556001600160a01b0381161561088f5761086381610424565b6001600160a01b0382166000908152600a60209081526040808320939093556007546009909152919020555b336000908152600a6020526040902054806108d95760405162461bcd60e51b815260206004820152600a6024820152694e6f207265776172647360b01b6044820152606401610523565b336000818152600a602052604080822091909155600254905163a9059cbb60e01b81526004810192909252602482018390526001600160a01b03169063a9059cbb906044016020604051808303816000875af115801561093d573d6000803e3d6000fd5b505050506040513d601f19601f82011682018060405250810190610961919061117a565b5080600460008282546109749190611150565b909155505060405181815233907f106f923f993c2149d49b4255ff723acafa1f2d94393f561d3eda32ae348f72419060200160405180910390a2505061083160018055565b6109c1610fd6565b610831600061102d565b6109d3611003565b336109dc610dd1565b600755426006556001600160a01b03811615610a27576109fb81610424565b6001600160a01b0382166000908152600a60209081526040808320939093556007546009909152919020555b6002546001600160a01b0316610a6f5760405162461bcd60e51b815260206004820152600d60248201526c151bdad95b881b9bdd081cd95d609a1b6044820152606401610523565b60008311610ab05760405162461bcd60e51b815260206004820152600e60248201526d043616e6e6f74207374616b6520360941b6044820152606401610523565b62093a80821015610af45760405162461bcd60e51b815260206004820152600e60248201526d131bd8dac81d1bdbc81cda1bdc9d60921b6044820152606401610523565b6301e13380821115610b385760405162461bcd60e51b815260206004820152600d60248201526c4c6f636b20746f6f206c6f6e6760981b6044820152606401610523565b3360009081526008602052604090205415610b955760405162461bcd60e51b815260206004820152601e60248201527f416c7265616479207374616b696e672c20756e7374616b6520666972737400006044820152606401610523565b6002546040516323b872dd60e01b8152336004820152306024820152604481018590526001600160a01b03909116906323b872dd906064016020604051808303816000875af1158015610bec573d6000803e3d6000fd5b505050506040513d601f19601f82011682018060405250810190610c10919061117a565b50336000908152600860205260408120549003610c3d57600b8054906000610c378361119c565b91905055505b6040518060c001604052808481526020018342610c5a9190611150565b8152602080820185905260006040808401829052606080850183905242608095860152338352600884528183208651815593860151600185015590850151600284015584015160038084019190915592840151600483015560a0909301516005909101558054859290610cce908490611150565b9091555050604080518481526020810184905233917f1449c6dd7851abc30abf37f57715f492010519147cc2652fbc38202c18a6ee90910160405180910390a250610d1860018055565b5050565b60006301e133808210610d325750610190919050565b62ed4e008210610d44575060fa919050565b6276a7008210610d56575060af919050565b62278d008210610d685750607d919050565b506064919050565b6001600160a01b038116600090815260086020526040812080546001820154600283015484938493849384938493929190610daa8b610424565b610db78560020154610d1c565b600590950154939c929b5090995097509195509350915050565b6000600354600003610de4575060075490565b600354600554600654610df790426110fe565b610e019190611117565b610e1390670de0b6b3a7640000611117565b610e1d919061112e565b600754610e2a9190611150565b905090565b610e37610fd6565b6001600160a01b038116610e6157604051631e4fbdf760e01b815260006004820152602401610523565b610e6a8161102d565b50565b610e75610fd6565b6000610e7f610dd1565b600755426006556001600160a01b03811615610eca57610e9e81610424565b6001600160a01b0382166000908152600a60209081526040808320939093556007546009909152919020555b60008211610f115760405162461bcd60e51b815260206004820152601460248201527304475726174696f6e206d757374206265203e20360641b6044820152606401610523565b6002546040516323b872dd60e01b8152336004820152306024820152604481018590526001600160a01b03909116906323b872dd906064016020604051808303816000875af1158015610f68573d6000803e3d6000fd5b505050506040513d601f19601f82011682018060405250810190610f8c919061117a565b50610f97828461112e565b600555426006556040518381527fde88a922e0d3b88b24e9623efeb464919c6bf9f66857a65e2bfcf2ce87a9433d9060200160405180910390a1505050565b6000546001600160a01b031633146108315760405163118cdaa760e01b8152336004820152602401610523565b60026001540361102657604051633ee5aeb560e01b815260040160405180910390fd5b6002600155565b600080546001600160a01b038381166001600160a01b0319831681178455604051919092169283917f8be0079c531659141344cd1fd0a4f28419497f9722a3daafe3b4186f6b6457e09190a35050565b60006020828403121561108f57600080fd5b81356001600160a01b03811681146110a657600080fd5b9392505050565b600080604083850312156110c057600080fd5b50508035926020909101359150565b6000602082840312156110e157600080fd5b5035919050565b634e487b7160e01b600052601160045260246000fd5b81810381811115611111576111116110e8565b92915050565b8082028115828204841417611111576111116110e8565b60008261114b57634e487b7160e01b600052601260045260246000fd5b500490565b80820180821115611111576111116110e8565b600081611172576111726110e8565b506000190190565b60006020828403121561118c57600080fd5b815180151581146110a657600080fd5b6000600182016111ae576111ae6110e8565b506001019056fea2646970667358221220355b93ff55465d673268a49ee139788d12899c1bf123f0b6fb7b783dc6597f5764736f6c63430008180033",
  "linkReferences": {},
  "deployedLinkReferences": {}
}